:100000000C9444070C9475070C9475070C947507B1
:100010000C9475070C9475070C9475070C94750770
:100020000C9475070C947D080C94AE080C94DF08B2
:100030000C9475070C9475070C9475070C94750750
:100040000C9475070C9475070C9475070C94750740
:100050000C9475070C9475070C9475070C94D717BE
:100060000C9475070C949E1A0C948E1B0C947507B7
:100070000C9475070C9475070C9475070C94750710
:100080000C9475070C9475070C9475070C94750700
:100090000C94D21A0C94CD1B0C9475070C94BE3A98
:1000A0000C9475070C9475070C9475070C947507E0
:1000B0000C9475070C9475070C9475070C947507D0
:1000C0000C9475070C9475070C9475070C94061B1B
:1000D0000C940C1C0C9475070C943A1B0C944B1C40
:1000E0000C947507036EDB363D9A9999993DABAA3E
:1000F000AA2A3E000000803F084AD73B3BCE016E53
:1001000084BCBFFDC12F3D6C74319ABD56833DDA6E
:100110003D00C77F11BED9E4BB4C3E916BAAAABE7D
:10012000000000803F072C7AA5BA6CC590DA3B939B
:1001300065FC8BBC53F810FD3C5692834DBD879DEA
:100140003AB63DCBC9BF5BBE73DA0FC93F05A84CB9
:10015000CDB2D44EB93836A9020C50B99186880870
:100160003CA6AAAA2ABE000000803F0000090A029D
:10017000080B0C0D0706030401000000000000003E
:10018000000000000000000000000000000000006F
:100190000000000000000011100F0000000000002F
:1001A000000000000000000000000000000000004F
:1001B000000102102020080810204010204080027A
:1001C000010201080402010102040810204080809D
:1001D0004020100804020180040201804020100821
:1001E00004020108040201010204081020408001F9
:1001F00002040810204080050505050705080808C9
:1002000008020202020A0A080804040404010101A7
:1002100001010101010303030303030303040707AF
:10022000070C0C0C0C0C0C0C0C020202020606064D
:1002300006060606060B0B0B0B0B0B0B0B00002028
:10024000002300260029002C002F003200000100AE
:100250000003010601090100002200250028002BEF
:10026000002E003100340002010000050108010BDE
:100270000100002100240027002A002D0030003357
:100280000001010000040107010A010000700000E4
:10029000000024000000020003000000650054FF7D
:1002A000EF0000FA80000B12820001030C30C30E35
:1002B0008C8CE914D5400213710F8E3883F883308B
:1002C00000F883258EF8833000F883FFFFFFFF0FCF
:1002D000FEA9D6240004001A8279A10000003CFF88
:1002E000FF00000010000038836FA2003E03304082
:1002F00000000002CAE3093E800000200000000068
:100300000000004000000060000000000C00000041
:100310000C186E000006920A16C0DFFFFF0256FDA1
:100320008CD377FFE1C496E0C5BEAA00000000FFB1
:10033000FF0B2B000016570000035940000000007F
:10034000001DFA00026C1D000000003FFFDFEB0003
:100350003EB3B6000D227800002F3C0000000000E4
:100360001942B5000039A20000B365D90E9FC91D1E
:10037000CF4C3430000000500000003BB67AE8005B
:1003800064000000C8000000000000100000001021
:1003900000FA921000225E000D229F000100000072
:1003A000320000FF46000063D4000010000000048B
:1003B000D6000004CC000004CC0000000010720045
:1003C00000004000000000000000000006000200E5
:1003D00005000700000000006400000000000000AD
:1003E000000005000500640020000000000000007F
:1003F000000000000040000000030000000032F890
:10040000980000FF650000830F0000FF9BFC0000C8
:1004100000000000000000000000000000000000DC
:1004200000000000000000000000000000000000CC
:10043000000000000000000000100040000000006C
:100440000000060000B26A000200000001FB830009
:1004500068000000D9FC007CF1FF83000000000070
:10046000650000006403E800640028000000250027
:1004700000000016A00000000010000000100000A6
:100480002F0000000001F40000100000280000FF11
:10049000FF4581FFFFFA720000000000000000002D
:1004A0004400050005BAC6004778A200000001001C
:1004B00000000000000600000000140000254D00B0
:1004C0002F706D000005AE000C02D000000000008F
:1004D0000000000000000000000000001B00000001
:1004E00000000000000000000000000064000000A8
:1004F00008000000000000000000000000000000F4
:1005000000000000000000000000000000000000EB
:1005100000000000000000000000000000000000DB
:1005200000000000000000000000000000000000CB
:1005300000000000000000000000000000000000BB
:100540000000000000000000000000001B00000090
:1005500000000000000000000E000E00000AC700AE
:1005600004000000000032FFFFFF9C00000B2B0086
:100570000000020000000100000064FFE500000030
:10058000000000000000000000000000000001006A
:1005900000000000010000000000000001800000D9
:1005A00001800000018000002426D300000000002C
:1005B000000000000600100096003C000000000053
:1005C00000000000000000000000000C0A4E68CD92
:1005D000CF770950166759C619CE82000000000077
:1005E000000000000000000000000000000000000B
:1005F00000000017D7840003000000000000000086
:10060000000000C7938F9D1E1B1C190000000000F6
:1006100000000000000000000000000000000000DA
:1006200000000002031885000040000000000300E5
:100630000000030000000000000000400000000077
:1006400000000000000000000000000000000000AA
:10065000000000000000000000000000000000009A
:100660000000000000000000000000000000006723
:100670007DDF7E72902E554CF6E68800000000006B
:100680000000000000000000000000D8DCB4B8B09A
:10069000D8B9ABF3F8FAB3B7BB8E9EAEF132F51B07
:1006A000F1B4B8B08097F1A9DFDFDFAADFDFDFF2B6
:1006B000AAC5CDC7A90CC92C97F1A989264666B24F
:1006C0008999A92D557DB0B08AA896365676F1BA8B
:1006D000A3B4B280C0B8A89711B28398BAA3F0248B
:1006E0000844106418B2B9B49883F1A329557DBAAF
:1006F000B5B1A38393F0002850F5B2B6AA8393282E
:10070000547CF1B9A3829361BAA2DADEDFDB819A6D
:10071000B9AEF5606870F1DABAA2DFD9BAA2FAB957
:10072000A38292DB31BAA2D9BAA2F8DF85A4D0C1E4
:10073000BBAD83C2C5C7B8A2DFDFDFBAA0DFDFDF92
:10074000D8D8F1B8AAB38DB4980D355DB2B6BAAFAA
:100750008C96198F9FA70E161EB49AB8AA872C5490
:100760007CBAA4B08AB691325676B28494A4C808F2
:10077000CDD8B8B4B0F19982A82D557D98A80E16A1
:100780001EA22C547C92A4F02C5078F184A898C41A
:10079000CDFCD80DDBA8FC2DF3D9BAA6F8DABAA6A1
:1007A000DED8BAB2B68696A6D0F3C841DAA6C8F8A3
:1007B000D8B0B4B882A892F52C548898F135D9F401
:1007C00018D8F1A2D0F8F9A884D9C7DFF8F883C502
:1007D000DADF69DF83C1D8F40114F1A8824EA8845E
:1007E000F311D182F5D992289788F109F41C1CD80D
:1007F00084A8F3C0F9D1D99782F129F40DD8F3F97F
:10080000F9D1D982F4C203D8DEDF1AD8F1A2FAF9FD
:10081000A88498D9C7DFF8F8F883C7DADF69DFF86A
:1008200083C3D8F40114F198A8822EA884F311D1BF
:1008300082F5D992509788F109F41CD884A8F3C0A6
:10084000F8F9D1D99782F149F40DD8F3F9F9D1D952
:1008500082F4C403D8DEDFD8F1AD8898CCA809F9BA
:10086000D98292A8F57CF1883ACF944A6E98DB69D8
:1008700031DAADF2DEF9D88795A8F221D1DAA5F9FF
:10088000F417D9F1AE8ED0C0C3AE82C684C3A8859A
:1008900095C8A588F2C0F1F4010EF18E9EA8C63E5F
:1008A00056F554F18872F40115F19845856EF58E70
:1008B0009E0488F142985A8E9E068869F4011CF1C4
:1008C000981E1108D0F504F11E970202983625DB18
:1008D000F9D985A5F3C1DA85A5F3DFD88595A8F305
:1008E00009DAA5FAD88292A8F578F1881A849F26A9
:1008F000889821DAF41DF3D8879F39D1AFD9DFDF8B
:10090000FBF9F40CF3D8FAD0F8DAF9F9D0DFD9F919
:10091000D8F40BD8F3879F39D1AFD9DFDFF41DF3BB
:10092000D8FAFCA869F9F9AFD0DADEFAD9F88F9FC6
:10093000A8F1CCF398DB45D9AFDFD0F8D8F18F9F81
:10094000A8CAF38809DAAF8FCBF8D8F2AD978D0C2F
:10095000D9A5DFF9BAA6F3FAF412F2D8950DD1D9D8
:10096000BAA6F3FADAA5F2C1BAA6F3DFD8F1BAB2A1
:10097000B68696A6D0CAF349DAA6CBF8D8B0B4B8F2
:10098000D8AD84F2C0DFF18FCBC3A8B2B68696C8CB
:10099000C1CBC3F3B0B48898A821DB718D9D71855C
:1009A0009521D9ADF2FAD88597A828D9F408D8F2BC
:1009B0008D29DAF405D9F285A4C2F2D8A88D940164
:1009C000D1D9F411F2D88721D8F40AD8F28498A8A2
:1009D000C801D1D9F411D8F3A4C8BBAFD0F2DEF866
:1009E000F8F8F8F8F8F8F8D8F1B8F6B5B9B08A958B
:1009F000A3DE3CA3D9F8D85CA3D9F8D87CA3D9F856
:100A0000D8F8F9D1A5D9DFDAFAD8B18530F7D9DE2F
:100A1000D8F830ADDADED8F2B48C99A32D557DA08C
:100A200083DFDFDFB591A0F629D9FBD8A0FC29D957
:100A3000FAD8A0D051D9F8D8FC51D9F9D879D9FB36
:100A4000D8A0D0FC79D9FAD8A1F9F9F9F9F9A0DA46
:100A5000DFDFDFD8A1F8F8F8F8F8ACDEF8ADDE8318
:100A600093AC2C547CF1A8DFDFDFF69D2CDAA0DFFD
:100A7000D9FADB2DF8D8A850DAA0D0DED9D0F8F812
:100A8000F8DB55F8D8A878DAA0D0DFD9D0FAF8F892
:100A9000F8F8DB7DF8D89CA88CF530DB38D9D0DEAF
:100AA000DFA0D0DEDFD8A848DB58D9DFD0DEA0DF5A
:100AB000D0DED8A868DB70D9DFDFA0DFDFD8F1A8EF
:100AC00088902C547C98A8D05C38D1DAF2AE8CDFB8
:100AD000F9D8B087A8C1C1B188A8C6F9F9DA36D863
:100AE000A8F9DA36D8A8F9DA36D8A8F9DA36D8A8C3
:100AF000F9DA36D8F78D9DADF818DAF2AEDFD8F70F
:100B0000ADFA30D9A4DEF9D8F2AEDEFAF983A7D96E
:100B1000C3C5C7F1889BA77AADF7DEDFA4F884943C
:100B200008A797F300AEF29819A488C6A39488F694
:100B300032DFF28393DB09D9F2AADFD8D8AEF8F915
:100B4000D1DAF3A4DEA7F1889B7AD8F38494AE19A6
:100B5000F9DAAAF1DFD8A881C0C3C5C7A39283F68A
:100B600028ADDED9F8D8A350ADD9F8D8A378ADD93F
:100B7000F8D8F8F9D1A1DADEC3C5C7D8A18194F8B5
:100B800018F2B089ACC3C5C7F1D8B8B4B09786A87D
:100B9000319B069907AB9728889BF00C201440B036
:100BA000B4B8F0A88A9A285078B79BA8295179241C
:100BB0007059446938644831F1BBAB88002C547CCF
:100BC000F0B38BB8A804285078F1B088B49726A861
:100BD0005998BBABB38B02264666B0B8F08A9CA886
:100BE0002951798B2951798A2470598B2058718A1F
:100BF0004469388B3940688A6448318B3049608851
:100C0000F1AC002C547CF08CA804285078F1889723
:100C100026A85998AC8C02264666F0899CA82951D2
:100C200079247059446938644831A9880920597079
:100C3000AB11384069A8193148608CA83C415C2050
:100C40007C00F187981986A86E767EA999882D5523
:100C50007DD8B1B5B9A3DFDFDFAED0DFAAD0DEF239
:100C6000ABF8F9D9B087C4AAF1DFDFBBAFDFDFB9DA
:100C7000D8B1F1A3978E60DFB084F2C8F8F9D9DE5D
:100C8000D89385F14AB183A308B5839A0810B79F1A
:100C900010D8F1B0BAAEB08AC2B2B68E9EF1FBD90E
:100CA000F41DD8F9D90CF1D8F8F8AD61D9AEFBD85C
:100CB000F40CF1D8F8F8AD19D9AEFBDFD8F416F181
:100CC000D8F8AD8D61D9F4F4ACF59C9C8DDF2BBACE
:100CD000B6AEFAF8F40BD8F1AED0F8AD51DAAEFA00
:100CE000F8F1D8B9B1B6A3839C08B9B1839AB5AA73
:100CF000C0FD3083B79F10B58B93F20202D1ABDAFF
:100D0000DED8F1B080BAABC0C3B284C1C3D8B1B928
:100D1000F38BA391B609B4D9ABDEB0879CB9A3DD40
:100D2000F1B38B8B8B8B8BB087A3A3A3A3B28BB6B2
:100D30009BF2A3A3A3A3A3A3A3A3A3A3F1B087B5EB
:100D40009AA3F39BA3A3DCBAACDFB9A3A3A3A3A389
:100D5000A3A3A3A3A3A3A3A3A3A3A3D8D8D8BBB39C
:100D6000B7F1AAF9DAFFD9809AAA28B48098A72007
:100D7000B79787A86688F07951F1902C870CA781E6
:100D8000976293F071716085940129517990A5F172
:100D9000284C6C870C95188578A38390284C6C8818
:100DA0006CD8F3A28200F210A8921980A2F2D92680
:100DB000D8F188A84DD948D896A83980D93CD8957B
:100DC00080A839A68698D92CDA87A72CD8A8899527
:100DD00019A980D938D8A88939A980DA3CD8A82E91
:100DE000A83990D90CD8A8953198D90CD8A809D988
:100DF000FFD801DAFFD89539A9DA26FFD890A80DD7
:100E00008999A810809821DA2ED88999A83180DA9A
:100E10002ED8A886963180DA2ED8A8873180DA2E8F
:100E2000D8A88292F34180F1D92ED8A882F31980F4
:100E3000F1D92ED882ACF3C0A28022F1A62EA72E23
:100E4000A92298A829DAACDEFFD8A2F22AF1A92EAD
:100E50008292A8F23180A696F1D900AC8C9C0C301D
:100E6000ACDED0DEFFD88C9CACD010ACDE8092A281
:100E7000F24C82A8F1CAF235F19688A6D900D8F1D1
:100E8000FF00D50A0B1DE52111241FBECFEFD1E2D3
:100E9000DEBFCDBF00E00CBF14E0A0E0B2E0ECECA0
:100EA000F4E800E00BBF02C007900D92AA3DB10725
:100EB000D9F71BE0AAEDB4E001C01D92A232B10740
:100EC000E1F71EE0C8E8DEE000E006C02297010975
:100ED000FE010BBF0E941241C238D10780E0080713
:100EE000A9F70E94411E0C9464420C940000CF9319
:100EF000DF93DC01FB012283518340831296CD9165
:100F0000DC91139788819381892B88838281833038
:100F100011F0813041F415968C9115979381892BAE
:100F200015968C93159782818150823040F41696E5
:100F30008C9116979381892B16968C931697809196
:100F4000680014969C91892B80936800DF91CF9163
:100F50000895EF92FF920F931F93CF93DF9300D0EA
:100F60001F92CDB7DEB77C01FC01808591850EC054
:100F70008C01FC018481861306C0B801C7010E9460
:100F8000770780E03EC0F80185819681009781F760
:100F900087E090E02C834A835B8369830E944E1E26
:100FA000DC0111961C921E9212961C9212972C81B3
:100FB0004A815B816981009719F114966C931497AB
:100FC00012962C93129716961C921E921597E62F46
:100FD000F0E0EF54FE4FE4911396EC931397F70172
:100FE00080859185892B19F4B187A08703C0F8010A
:100FF000B683A583BD01C7010E94770781E001C0C8
:101000008FEF0F900F900F900F90DF91CF911F9166
:101010000F91FF90EF900895242FE82FF0E0E95012
:10102000FE4FE491EE23D9F061157105C1F0F0E0B7
:101030003297EA30F10540F4EE0FFF1FEB56FD4FFB
:101040000190F081E02D02C0E0E0F0E0A081B181EC
:101050009C919783AB01682FCF010C94A9078FEF68
:101060000895FF920F931F93CF93DF93EC0120918C
:1010700045068F813D81909145064E81F090450651
:10108000F094F4229323F92A8227F82280914506CE
:101090008F83088519851BC0D80113969C918F2DCD
:1010A000892381F080914506892391E009F490E03D
:1010B00090934306F8018481809344060190F08167
:1010C000E02D1995D80115960D911C9116970115D3
:1010D000110511F78BB39C81892349F08BB3892BC0
:1010E0008BBBE881F981808180934506C0CFDF9179
:1010F000CF911F910F91FF9008951F920F920FB6FD
:101100000F9211240BB60F922F933F934F935F933F
:101110006F937F938F939F93AF93BF93EF93FF93BF
:10112000E0913906F0913A0680818093450689E383
:1011300096E00E943108FF91EF91BF91AF919F918E
:101140008F917F916F915F914F913F912F910F9070
:101150000BBE0F900FBE0F901F9018951F920F920D
:101160000FB60F9211240BB60F922F933F934F930C
:101170005F936F937F938F939F93AF93BF93EF93FF
:10118000FF93E0912F06F091300680818093450611
:101190008FE296E00E943108FF91EF91BF91AF91ED
:1011A0009F918F917F916F915F914F913F912F917F
:1011B0000F900BBE0F900FBE0F901F9018951F92AF
:1011C0000F920FB60F9211240BB60F922F933F93ED
:1011D0004F935F936F937F938F939F93AF93BF933F
:1011E000EF93FF93E0912506F0912606808180938E
:1011F000450685E296E00E943108FF91EF91BF918C
:10120000AF919F918F917F916F915F914F913F919E
:101210002F910F900BBE0F900FBE0F901F9018953F
:101220000F931F9340E052EC61E070E085EE96E092
:101230000E948A1C66E472E085EE96E00E94AD1E74
:101240006CE472E085EE96E00E948E1E4AE050E06B
:1012500062E370E085EE96E00E94B51F61E083E3F3
:101260000E94511961E083E30E94891941E050E036
:1012700068EC75E182E40E940C0841E050E06AEEFF
:1012800075E184E40E940C0841E050E06CE076E1F6
:1012900085E40E940C0841E050E06EE276E180E4D3
:1012A0000E940C0841E050E060E576E183E40E9492
:1012B0000C0841E050E062E776E181E40E940C080E
:1012C00068E572E085EE96E00E948E1E4AE050E0EE
:1012D00061E070E085EE96E00E94B51F87E299E03C
:1012E0000E94AB2161E070E08CE595E00E940E0C5D
:1012F00008E210E02AE030E04AE050E062E370E00B
:101300008CE595E00E94130C87E395E00E94D50BD5
:101310006BE772E085EE96E00E948E1E0E94211817
:101320006093DA047093DB048093DC049093DD0413
:101330001F910F910895AF92BF92CF92DF92EF92DB
:10134000FF920F931F93CF93DF930E943318009166
:10135000E2041091E3042091E4043091E504601B61
:10136000710B820B930B6093E6047093E7048093F8
:10137000E8049093E9040E9433186093E2047093A8
:10138000E3048093E4049093E5042091E604309113
:10139000E7044091E8045091E90460E472E48FE0CE
:1013A00090E00E94C940CA01B9010E94683E609362
:1013B000DE047093DF048093E0049093E104809155
:1013C0002406882321F0F8940E949515789486E1EC
:1013D00096E00E94191480931506809106028823D6
:1013E00009F4D5C00E9421180091DA041091DB04A1
:1013F0002091DC043091DD04601B710B820B930B98
:10140000613177428105910508F0C1C006C061E0F5
:1014100070E080E090E00E945D188CE595E00E940D
:1014200080108823A1F38CE595E00E9407138823A0
:1014300079F060E575E08CE595E00E948B1366EA33
:1014400075E08CE595E00E94BA1262E373E005C096
:1014500081E080934F0566E872E085EE96E00E9499
:10146000AD1E8091200690912106892B69F0809114
:101470001506882349F080914F05811105C08091A0
:10148000060291E0892701C080E0809336056091D3
:101490001A0670911B06882777FD8095982F0E9469
:1014A0006A3ED1E4DF93C0E2CF931F921F92A12C3A
:1014B000B12C30E2C32E31ECD32EE12CF12C0AE713
:1014C00014E420E030E0A9010E9494166093F60431
:1014D0007093F7048093F8049093F90460911E06CA
:1014E00070911F06882777FD8095982F0E946A3E8D
:1014F000DF93CF931F921F9220E030E0A9010E945A
:1015000094166093F2047093F3048093F404909320
:10151000F50460911C0670911D06882777FD809563
:10152000982F0E946A3E23E42F9324E32F931F9267
:101530001F92A12CB12C54E3C52E53ECD52E20E0E4
:1015400030E0A9010E9494166093EE047093EF04BA
:101550008093F0049093F10460911806709119063D
:10156000882777FD8095982F0E946A3E6093EA0451
:101570007093EB048093EC049093ED048DB79EB7C9
:101580000C960FB6F8949EBF0FBE8DBF03C010928D
:10159000060243CFDF91CF911F910F91FF90EF9003
:1015A000DF90CF90BF90AF900895E1E4F2E0859195
:1015B0009491E9E3F6E0808391838BE690E0909349
:1015C0003C0680933B0681E080933D0610923E06E8
:1015D00010923F061092420610924106E1E5F2E0B9
:1015E00085919491EFE2F6E0808391838CE690E020
:1015F000909332068093310682E0809333061092F6
:101600003406109235061092380610923706E3E53C
:10161000F2E085919491E5E2F6E0808391838DE696
:1016200090E0909328068093270684E08093290613
:1016300010922A0610922B0610922E0610922D065A
:101640008CE595E00E94000C87E395E00E942D0B4D
:101650008AEF94E00C942C0B0895FC0188E090E054
:101660009183808389E090E0938382838AE090E095
:10167000958384838BE090E09783868308959F927F
:10168000AF92BF92CF92DF92EF92FF920F931F9390
:10169000CF93DF93EC01962ECA01B90123E42F9377
:1016A0002AE72F931F921F92A12CB12C48E4C42E3D
:1016B00042E4D42EE12CF12C00E011E420E030E0F3
:1016C000A9010E9494166B017C010F900F900F905E
:1016D0000F9020E030E048E452E40E94C83D87FDCE
:1016E00011C020E030E04AE753E4C701B6010E9490
:1016F000A43F18166CF4C12CD12C3AE7E32E33E446
:10170000F32E06C0C12CD12C28E4E22E22E4F22EC6
:10171000C701B6010E94373E6B01E92CF12CF7019D
:101720003197EE0FFF1FEC0FFD1F80810E94FB160B
:101730008FEFE81AF80AEE0CFF1CEE0CFF1CEC0E03
:10174000FD1EB601882777FD8095982F0E946A3E7E
:10175000F7016083718382839383DF91CF911F911F
:101760000F91FF90EF90DF90CF90BF90AF909F9040
:101770000895CF92DF92EF92FF921F93CF93DF9362
:10178000EC016A017B0111E0A7019601612FCE01F6
:101790000E943F0B1F5F1530B9F7DF91CF911F916A
:1017A000FF90EF90DF90CF90089540E050E0BA01B5
:1017B0000C94B90BFC0180811816ACF0811116C095
:1017C00081811816B4F0811117C0828118162CF08F
:1017D000882331F026E030E011C022E030E00EC076
:1017E00027E030E00BC020E030E008C024E030E02B
:1017F00005C021E030E002C025E030E0C9010895D5
:10180000FC01E957FF4F21E02083FC01EA57FF4F1D
:101810002083FC01E857FF4F1082089588579F4F9F
:10182000FC01608308952F923F924F925F926F92D6
:101830007F928F929F92AF92BF92CF92DF92EF9260
:10184000FF920F931F93CF93DF93CDB7DEB72E9701
:101850000FB6F894DEBF0FBECDBF5C014B017A011D
:1018600038872F8318018C0108571F4FD8018C919E
:1018700090E00E946C27F801808190E00E94D035B2
:101880008F819885853691050CF01FC2AF81B88590
:101890001A161B060CF019C2F501E557FF4F88EE2A
:1018A00093E0BD010E94B540CB01AA2797FDA0950A
:1018B000BA2F80839183A283B3830E942118F501FC
:1018C000E157FF4F6083718382839383B9EE8B1658
:1018D000B3E09B060CF0F9C1181419040CF0F5C123
:1018E000F501E757FF4FF182E082F501ED56FF4F1A
:1018F0001082118212821382F501E956FF4F108285
:10190000118212821382B5016A597F4FF8018081DA
:101910000E94F626F501EA57FF4F882309F454C1C7
:10192000D501A859BF4F31E08D919C91019709F0E5
:1019300030E0208123232083F501EA58FF4F31E076
:1019400080819181019709F030E0F501E957FF4F5F
:10195000708073227082222309F47AC0F501E45961
:10196000FF4F00811181B801882777FD8095982F5E
:10197000F501E659FF4FC080D180EE24D7FCE094FA
:10198000FE2C6C0D7D1D8E1D9F1DF2E0CF2ED12CE7
:10199000E12CF12CA70196010E94EB40F501E556E0
:1019A000FF4F31832083F501E356FF4F021B130BDA
:1019B00011830083F501E059FF4F00811181B801C7
:1019C000882777FD8095982FF501E259FF4F2081F8
:1019D0003181442737FD4095542F620F731F841FB8
:1019E000951FA70196010E94EB40F501E156FF4FBC
:1019F00031832083F501EF55FF4F021B130B118339
:101A00000083F501EC58FF4F00811181B801882750
:101A100077FD8095982FF501EE58FF4F2081318199
:101A2000442737FD4095542F620F731F841F951F65
:101A3000A70196010E94EB40F501ED55FF4F318360
:101A40002083F501EB55FF4F021B130B118300831D
:101A5000772009F4BEC0850103551F4FC501865884
:101A60009F4F9A878987DC016D917C91882777FD4C
:101A70008095982FF501E858FF4FC080D180EE2463
:101A8000D7FCE094FE2C6C0D7D1D8E1D9F1DE2E0A9
:101A90004E2E512C612C712CA30192010E94EB401F
:101AA00050954095309521953F4F4F4F5F4FF8012E
:101AB0002083318342835383C5018F549F4F9C877A
:101AC0008B87D501A258BF4FBE87AD876D917C91A2
:101AD000882777FD8095982FF501E458FF4FC08047
:101AE000D180EE24D7FCE094FE2C6C0D7D1D8E1D64
:101AF0009F1DA30192010E94EB40509540953095A7
:101B000021953F4F4F4F5F4FEB85FC8520833183FD
:101B1000428353836501F5EBCF0ED11C750182E83A
:101B2000E80EF11CD7016D917C91882777FD809597
:101B3000982FF501E058FF4F20813181442737FD70
:101B40004095542F620F731F841F951FA3019201AC
:101B50000E94EB4050954095309521953F4F4F4F57
:101B60005F4FF6012083318342835383C8010E9473
:101B70009528F501E955FF4FA985BA858D919C916E
:101B8000D8012D913C91820F931F91838083F501A1
:101B9000E755FF4FAD85BE858D919C91AB85BC858A
:101BA0002D913C91820F931F91838083F501E55520
:101BB000FF4FD7018D919C91D6012D913C91820FC1
:101BC000931F9183808305C01082F501E957FF4F71
:101BD0001082F501EA57FF4F8081882331F069EACE
:101BE00072E085EE96E00E94AD1EF501E957FF4FC9
:101BF0008081882331F067EB72E085EE96E00E94E9
:101C0000AD1E0E94AB271A8219821C821B821D8284
:101C100081E08E83CE0101960E94A52F8C01009752
:101C200019F067EC72E013C089E70E94E22D88E7A3
:101C30000E94D52B63EE72E085EE96E00E94AD1E09
:101C40000E94EB358C01009771F064EF72E085EE35
:101C500096E00E948E1E4AE050E0B80185EE96E0C4
:101C60000E94B51F32C087E092E00E94DA0B8C011F
:101C70008AE092E00E94DA0B7C018DE092E00E9403
:101C8000DA0B970143E0220F331F4A95E1F756E044
:101C9000880F991F5A95E1F7282B392BC901802B02
:101CA000912B0E94F53580E791E00E948037C401B6
:101CB0000E94B33681E00E949D34892B41F062E19D
:101CC00073E085EE96E00E94AD1E80E00EC0C40178
:101CD0000E94312F8F8198850E94952B2114310409
:101CE00019F0C1010E944B2B81E02E960FB6F8949B
:101CF000DEBF0FBECDBFDF91CF911F910F91FF903F
:101D0000EF90DF90CF90BF90AF909F908F907F909B
:101D10006F905F904F903F902F9008952F923F9239
:101D20004F925F926F927F928F929F92AF92BF92EB
:101D3000CF92DF92EF92FF920F931F93CF93DF9397
:101D4000CDB7DEB7C054D1090FB6F894DEBF0FBED1
:101D5000CDBF8C015C018AE4A80EB11CF80182A9F8
:101D600093A9A4A9B5A9F50180839183A283B38324
:101D70009801225B3F4FF80186A997A9A0ADB1ADAC
:101D8000B058F90180839183A283B383F801EE5A9E
:101D9000FF4F1082118212821382BE016F5E7F4F4D
:101DA000C5010E94A423F80142AC53AC64AC75ACED
:101DB0007801F3E9EF0EF11CA3019201F7016081B4
:101DC0007181828193810E94EA3C1B014C01F701E1
:101DD000408251826282738219AA1AAA1BAA1CAA83
:101DE000F801EC5BFF4F60817181882777FD80955A
:101DF000982F0E946A3E6DAB7EAB8FAB98AFF80117
:101E0000EA5BFF4F60817181882777FD8095982F6D
:101E10000E946A3E69AF7AAF8BAF9CAFF801E85B76
:101E2000FF4F60817181882777FD8095982F0E94F0
:101E30006A3E21966CAF7DAF8EAF9FAF2197BE01FA
:101E40006F5F7F4FCE0141960E94F824AE014F5D37
:101E50005F4FBE016F5F7F4FCE01C1960E94252567
:101E6000AE014F5C5F4FBE016F5D7F4FCE0141966B
:101E70000E9425252DA93EA94FA958AD69AD7AAD7F
:101E80008BAD9CAD0E94753D2B013C016B017C012B
:101E9000F7FAF094F7F8F094A7019601C701B6019C
:101EA0000E94C83D882339F06BE273E085EE96E02E
:101EB0000E94AD1E0BC120E030E0A901C701B601B0
:101EC0000E94C83D87FF0CC0A30192016BED7FE02B
:101ED00089EC90E40E94EA3CC62ED72EE82EF92E1B
:101EE000F801E956FF4F2081318142815381622DF3
:101EF000732D882D992D0E94EB3C3B014C012BED5D
:101F00003FE049EC50E4772D992D0E94A43F18162C
:101F100064F42BED3FE049EC50E4662D772D882DDD
:101F2000992D0E94EA3C3B014C0120E030E0A901E0
:101F3000662D772D882D992D0E94C83D87FF0CC0F6
:101F40002BED3FE049EC50E4662D772D882D992D3F
:101F50000E94EB3C3B014C01262D372D482D592D7D
:101F6000C701B6010E94EA3C6B017C012BED3FE00A
:101F700049E450E47D2D9F2D0E94A43F87FD0CC0B5
:101F80002BED3FE049EC50E46C2D7D2D8E2D9F2DE7
:101F90000E94EA3C6B017C012BED3FE049E450ECF0
:101FA0006C2D7D2D8E2D9F2D0E94C83D181664F03E
:101FB0002BED3FE049EC50E46C2D7D2D8E2D9F2DB7
:101FC0000E94EB3C6B017C01F801E757FF4F6081F9
:101FD0007181161617060CF045C0882777FD80958D
:101FE000982F0E946A3E9B01AC016C2D7D2D8E2D99
:101FF0009F2D0E94CF3D9B01AC01662D772D882D32
:10200000992D0E94EB3C3B014C012BED3FE049EC4C
:1020100050E4772D992D0E94A43F181664F42BEDFF
:102020003FE049EC50E4662D772D882D992D0E94D4
:10203000EA3C3B014C0120E030E0A901662D772D00
:10204000882D992D0E94C83D87FF0CC02BED3FE0E5
:1020500049EC50E4662D772D882D992D0E94EB3C9C
:102060003B014C01F801E956FF4F862D972DA82D15
:10207000B92D80839183A283B3832BED3FE049E4A4
:1020800050E4662D772D882D992D0E94A43F1816B7
:1020900064F42BED3FE049EC50E4662D772D882D5C
:1020A000992D0E94EA3C3B014C01F801EE5AFF4F8A
:1020B000862D972DA82DB92D80839183A283B3837C
:1020C000B8016A5A7F4FC5010E94A423C05CDF4F4C
:1020D0000FB6F894DEBF0FBECDBFDF91CF911F9139
:1020E0000F91FF90EF90DF90CF90BF90AF909F90B7
:1020F0008F907F906F905F904F903F902F900895BA
:102100008F929F92AF92BF92CF92DF92EF92FF9207
:102110000F931F93CF93DF93CDB7DEB729970FB6F9
:10212000F894DEBF0FBECDBF6C018C0108571F4F66
:10213000D8018C9190E00E946C27F801808190E09A
:102140000E94D035CE0107960E94142C8F8198856D
:10215000827091708230914009F047C0B6016A5E8A
:102160007F4F59E0E52EF12CEC0EFD1E8E010B5F2A
:102170001F4F9E012F5F3F4FA601C60140960E9450
:102180005738892B91F50E942118860101571F4F5E
:10219000D8018D909D90AD90BC90681979098A09FD
:1021A0009B09F601E557FF4F80809180A280B380A4
:1021B000681579058A059B0508F4BCC0BE016F5FF0
:1021C0007F4FC6014C960E94FC345C01009779F069
:1021D00063E373E085EE96E00E948E1E4AE050E0D5
:1021E000B50185EE96E00E94B51F80E0B0C10E9467
:1021F0002118F8016083718382839383F601EA5783
:10220000FF4F8081D6015C966D917C915D97860130
:102210000A5B1F4F882309F474C0F601E556FF4F8F
:1022200080819181681B790B882777FD8095982F95
:102230002CE0660F771F881F991F2A95D1F7F601AA
:10224000E356FF4F20813181442737FD4095542FBD
:102250000E94EB40319521953109F80131832083AB
:10226000F601E156FF4FD6015E966D917C915F9726
:1022700080819181681B790B86010C5B1F4F882739
:1022800077FD8095982F3CE0660F771F881F991F78
:102290003A95D1F7F601EF55FF4F20813181442760
:1022A00037FD4095542F0E94EB40F8013183208385
:1022B000F601ED55FF4FD60190966D917C91919767
:1022C00080819181681B790B8601085B1F4F8827ED
:1022D00077FD8095982F4CE0660F771F881F991F18
:1022E0004A95D1F7F601EB55FF4F20813181442704
:1022F00037FD4095542F0E94EB40F8013183208335
:1023000019C0719561957109D8016D937C93F6019F
:10231000EC5BFF4FD6015E968D919C915F97918308
:102320008083F601E85BFF4F90968D919C91919789
:1023300091838083F60160817181828193810E9403
:102340006A3ED60192966D937D938D939C9395975B
:1023500014966D917D918D919C9117970E946A3E84
:10236000F60166A377A380A791A760857185828512
:1023700093850E946A3ED6019A966D937D938D93C4
:102380009C939D971C966D917D918D919C911F972B
:102390000E946A3EF60166A777A780AB91AB8601E3
:1023A0000E5D1F4FC8010E94E921B6016E5C7F4F90
:1023B000C8010E94A722F601E957FF4F8081D6018C
:1023C00056962D913C915797882309F4A3C037FD69
:1023D0001EC0B901882777FD8095982F1CE0660FF5
:1023E000771F881F991F1A95D1F7F601E658FF4FFE
:1023F00020813181442737FD4095542F0E94EB40C6
:10240000319521953109F60137AF26AF17C0A0E00D
:10241000B0EF0E947640F601E858FF4F20813181ED
:10242000442737FD4095542F0E94EB40319521956C
:102430003109D601DF963C932E93DE97F601208D6D
:10244000318D8601005C1F4F37FD1AC0B901882706
:1024500077FD8095982FBCE0660F771F881F991F26
:10246000BA95D1F7E258FF4F20813181442737FDDB
:102470004095542F0E94EB40D8012D933C9312C0FD
:10248000A0E0B0EF0E947640F601E458FF4F2081B3
:102490003181442737FD4095542F0E94EB40F801CD
:1024A00031832083D6015A962D913C915B9786010A
:1024B0000E5B1F4F37FD1BC0B901882777FD809544
:1024C000982FACE0660F771F881F991FAA95D1F748
:1024D000F601EE57FF4F20813181442737FD4095AB
:1024E000542F0E94EB40F801318320832CC0A0E0E0
:1024F000B0EF0E947640F601E058FF4F2081318115
:10250000442737FD4095542F0E94EB40D8012D936E
:102510003C9319C066277727621B730BF60177AFD0
:1025200066AFE05CFF4FD60158968D919C9159970C
:1025300091838083F601EE5BFF4F5A968D919C91BB
:102540005B9791838083C6010E948E0E81E029965D
:102550000FB6F894DEBF0FBECDBFDF91CF911F91B4
:102560000F91FF90EF90DF90CF90BF90AF909F9032
:102570008F900895CF93DF93EB0161E573E085EED3
:1025800096E00E948E1E20EE3EE245E652E468810F
:1025900079818A819B810E94AF3FAB01BC0122E01F
:1025A00030E085EE96E00E94C62065E573E085EE9A
:1025B00096E00E948E1E20EE3EE245E652E46C81DB
:1025C0007D818E819F810E94AF3FAB01BC0122E0E3
:1025D00030E085EE96E00E94C6206AE573E085EE65
:1025E00096E00E948E1E20EE3EE245E652E46885AB
:1025F00079858A859B850E94AF3FAB01BC0122E0B3
:1026000030E085EE96E0DF91CF910C94C6208F925A
:102610009F92AF92BF92CF92DF92EF92FF925C01B6
:10262000FC01E65BFF4F20EE3EE245E652E46081AE
:102630007181828193810E94AF3F2AE037ED43E2AE
:102640005FE30E94EB3C6B017C01F7FAF094F7F832
:10265000F094F501E25BFF4F80809180A280B3800F
:1026600020E030E0A901C701B6010E94A43F18167E
:102670005CF420E030E040EF51E4C701B6010E9475
:10268000C83D87FD0BC03DC020E030E040EF51EC7D
:10269000C701B6010E94A43F18169CF520EE3EE249
:1026A00045E652E4C501B4010E94AF3F29E23CE592
:1026B0004FE85DE30E94EA3C6B017C0120E030E0E2
:1026C000A9017D2D9F2D0E94A43F181674F420E0CF
:1026D00030E040EF51E46C2D7D2D8E2D9F2D0E941A
:1026E000C83D87FF0EC081E00DC020E030E040EF24
:1026F00051EC6C2D7D2D8E2D9F2D0E94A43F181620
:1027000094F380E0FF90EF90DF90CF90BF90AF9078
:102710009F908F9008956F927F928F929F92AF9229
:10272000BF92CF92DF92EF92FF920F931F93CF93BE
:10273000DF938C01EB01FC01E65BFF4F20EE3EE2F4
:1027400045E652E460817181828193810E94AF3FAE
:102750002AE037ED43E25FE30E94EB3C4B015C0172
:10276000B7FAB094B7F8B094F801EE5AFF4F20EEE4
:102770003EE245E652E460817181828193810E944C
:10278000AF3F6B017C01F801E25BFF4F20EE3EE2C0
:1027900045E652E460817181828193810E94AF3F5E
:1027A00029E23CE54FE85DE30E94EA3C24EF3DEF7F
:1027B00044E35FE30E94AF3F3B018C0124EF3DEF18
:1027C00044E35FE3C501B4010E94AF3F262D372DDE
:1027D000402F512F0E94EB3C688379838A839B832F
:1027E00024EF3DEF44E35FEBC501B4010E94AF3F2E
:1027F000262D372D402F512F0E94EB3C6C837D837B
:102800008E839F838C2D9D2DAE2DBF2D888799871C
:10281000AA87BB87DF91CF911F910F91FF90EF9017
:10282000DF90CF90BF90AF909F908F907F906F90F0
:1028300008952F923F924F925F926F927F928F9264
:102840009F92AF92BF92CF92DF92EF92FF920F933F
:102850001F93CF93DF93CDB7DEB728970FB6F894C9
:10286000DEBF0FBECDBF1C01809148069091490686
:10287000009709F440C18B5A95408336910508F4BE
:102880003AC1609150067091510680E090E01F922D
:102890001F9224E0922E9F923AE1832E8F924EEC6B
:1028A000A42EBB24BA94CB2CDB2CE12C18E0F12E07
:1028B00000E010E028EC33E040E050E00E94C82047
:1028C00069837A838B839C8360914E0670914F0657
:1028D00080E090E01F921F929F928F9210ECE12E69
:1028E00017E0F12E00E010E028EB33E040E050E08C
:1028F0000E94C8202B013C0160914C0670914D064E
:1029000080E090E01F921F929F928F9214E9E12E37
:1029100017E0F12E00E010E025E633E040E050E063
:102920000E94C8206D837E838F83988760914A06BA
:1029300070914B0680E090E01F921F929F928F92C1
:1029400018EAE12E17E0F12E00E010E020E733E076
:1029500040E050E00E94C820F1E00FB6F894DEBFDE
:102960000FBECDBF20914806309149062C3C354022
:1029700008F4F0E0E1E020914606309147062C3C57
:10298000354008F4E0E0D1011D921C9228EE33E0BE
:10299000A901A981BA814A1B5B0BD10113965C93F3
:1029A0004E93129715965C924E9214974D815E81CC
:1029B00017965C934E931697261B370B19963C93EC
:1029C0002E9318971A96FC931A971B961C921B9796
:1029D0001C96EC931C971D961C92410102E010E09E
:1029E00088EE482E83E0582E94EF692E7724739456
:1029F000D4011496ED90FC901597B5EFEB16B1E06D
:102A0000FB0624F0B701645F714003C0B3016E1987
:102A10007F09882777FD8095982F0E946A3E20E0E5
:102A200030E048E452E40E94C83D87FF04C0F4014E
:102A3000758264822FC0C701845F91400E94F116A5
:102A4000B82EB701882777FD8095982F0E946A3E9F
:102A50006B017C014B2D92014203B001439F700D2D
:102A60001124882777FD8095982F0E946A3E2DECCF
:102A70003CEC4CE45DE30E94AF3F9B01AC01C7011D
:102A8000B6010E94EA3C0E94373ED40115967C9321
:102A90006E9314970F5F1F4FB2E08B0E911C0530A1
:102AA000110509F0A5CFF10162817381882777FDB7
:102AB0008095982F0E946A3E2B013C0120E030E077
:102AC00048E452E40E94C83D87FF06C0D101139636
:102AD0001C921E9212970DC020E030E048E452E4B0
:102AE000C301B2010E94EA3C0E94373EF1017383A8
:102AF000628381E001C080E028960FB6F894DEBFC3
:102B00000FBECDBFDF91CF911F910F91FF90EF903E
:102B1000DF90CF90BF90AF909F908F907F906F90FD
:102B20005F904F903F902F90089580917406909100
:102B3000750690935106809350068091720690918D
:102B4000730690934F0680934E0680917006909185
:102B5000710690934D0680934C0680916E0690917D
:102B60006F0690934B0680934A0680916C06909175
:102B70006D06909349068093480680916A0690916D
:102B80006B0690934706809346061092240608959C
:102B900082E40E94C019019759F40E94331860938F
:102BA0006606709367068093680690936906089599
:102BB0000E9433182091660630916706621B730BE2
:102BC00070937506609374068091240681608093EB
:102BD0002406089584E40E94C019019759F40E94C4
:102BE0003318609362067093630680936406909333
:102BF000650608950E94331820916206309163069D
:102C0000621B730B709373066093720680912406A7
:102C1000826080932406089585E40E94C01901977C
:102C200059F40E94331860935E0670935F06809398
:102C300060069093610608950E94331820915E0605
:102C400030915F06621B730B709371066093700680
:102C500080912406846080932406089580E40E9475
:102C6000C019019759F40E94331860935A06709363
:102C70005B0680935C0690935D0608950E9433186E
:102C800020915A0630915B06621B730B70936F069E
:102C900060936E06809124068860809324060895D0
:102CA00083E40E94C019019759F40E94331860937D
:102CB00056067093570680935806909359060895C8
:102CC0000E9433182091560630915706621B730BF1
:102CD00070936D0660936C068091240680618093EA
:102CE0002406089581E40E94C019019759F40E94B6
:102CF0003318609352067093530680935406909352
:102D0000550608950E9433182091520630915306BB
:102D1000621B730B70936B0660936A0680912406A6
:102D200080628093240608954F925F926F927F9203
:102D3000AF92BF92CF92DF92EF92FF920F931F93C9
:102D4000CF93DF93CDB7DEB728970FB6F894DEBFE9
:102D50000FBECDBF29013A01ED82FE820F83188795
:102D60000E94EA3C69837A838B839C83A601950148
:102D70006A8D7B8D8C8D9D8D0E94EA3C9B01AC0100
:102D800069817A818B819C810E94AF3F69837A83BC
:102D90008B839C83A3019201C801B7010E94EA3C86
:102DA0009B01AC0169817A818B819C810E94CF3D1E
:102DB000A60195010E94EB3C28960FB6F894DEBF61
:102DC0000FBECDBFDF91CF911F910F91FF90EF907C
:102DD000DF90CF90BF90AF907F906F905F904F90BB
:102DE000089597FD05C021E0892B19F420E001C06A
:102DF0002FEF822F08951F93CF93DF93182FEB01AE
:102E000061E00E945119209711F460E004C0CF3FA7
:102E1000D10539F461E0812FDF91CF911F910C949E
:102E20008919E12FF0E0E559FE4FE491E93009F40A
:102E300060C098F4E430C9F138F4E23039F158F563
:102E4000E13009F0ABC01DC0E73009F440C008F024
:102E500046C0E63009F0A2C032C0ED3009F476C0B9
:102E600030F4EB3009F459C008F066C04CC0E031D2
:102E700009F480C0E13109F487C0EF3009F08EC059
:102E80006FC084B5806884BDC7BD8DC084B58062C5
:102E900084BDC8BD88C08091800080688093800018
:102EA000D0938900C09388007EC0809180008062AA
:102EB00080938000D0938B00C0938A0074C080916F
:102EC000B00080688093B000C093B3006CC0809164
:102ED000B00080628093B000C093B40064C0809161
:102EE0009000806880939000D0939900C0939800E0
:102EF0005AC080919000806280939000D0939B0094
:102F0000C0939A0050C08091900088608093900098
:102F1000D0939D00C0939C0046C08091A000806823
:102F20008093A0008091A0008F7B8093A000D0931D
:102F3000A900C093A80037C08091A0008062809350
:102F4000A000D093AB00C093AA002DC08091A00038
:102F500088608093A000D093AD00C093AC0023C0E4
:102F600080912001806880932001D0932901C09333
:102F7000280119C080912001806280932001D093A4
:102F80002B01C0932A010FC080912001886080939B
:102F90002001D0932D01C0932C0105C0C038D1056C
:102FA0000CF038CF32CFDF91CF911F9108951F924F
:102FB0000F920FB60F9211242F933F938F939F93ED
:102FC000AF93BF938091760690917706A091780693
:102FD000B091790630917E06232F2D5F2D3720F496
:102FE0000196A11DB11D05C0232F2A570296A11DD0
:102FF000B11D20937E068093760690937706A0936A
:103000007806B093790680917A0690917B06A0911C
:103010007C06B0917D060196A11DB11D80937A06B4
:1030200090937B06A0937C06B0937D06BF91AF91F1
:103030009F918F913F912F910F900FBE0F901F90F6
:1030400018950F931F938FB7F894009176061091FF
:10305000770620917806309179068FBFB801C901B3
:103060001F910F9108950F931F939FB7F8940091AC
:103070007A0610917B0620917C0630917D0686B5FC
:10308000A89B06C08F3F21F00F5F1F4F2F4F3F4F70
:103090009FBF322F212F102F0027080F111D211D38
:1030A000311D42E0000F111F221F331F4A95D1F737
:1030B000B801C9011F910F910895CF92DF92EF924D
:1030C000FF92CF93DF936B017C010E943318EB01D9
:1030D0000EC00E9433186C1B7D0B683E734038F0A5
:1030E00081E0C81AD108E108F108C851DC4FC114C9
:1030F000D104E104F10469F7DF91CF91FF90EF90E3
:10310000DF90CF900895789484B5826084BD84B5B3
:10311000816084BD85B5826085BD85B5816085BDD2
:10312000EEE6F0E0808181608083E1E8F0E01082EB
:10313000808182608083808181608083E0E8F0E02C
:10314000808181608083E1EBF0E080818460808316
:10315000E0EBF0E0808181608083E1E9F0E0808154
:1031600082608083808181608083E0E9F0E08081FB
:1031700081608083E1EAF0E08081826080838081E9
:1031800081608083E0EAF0E0808181608083E1E219
:10319000F1E0808182608083808181608083E0E2D1
:1031A000F1E0808181608083EAE7F0E080818460E3
:1031B0008083808182608083808181608083808140
:1031C000806880831092C1000895893009F443C05B
:1031D00088F4843029F138F4823059F1E8F48130F0
:1031E00009F05EC023C0873061F188F5863009F0B0
:1031F00057C023C08D3009F440C020F48B30A9F1B2
:10320000C0F52DC0803109F442C0813109F443C0BA
:103210008F3009F045C037C0809180008F7703C0A0
:10322000809180008F7D80938000089584B58F7792
:1032300002C084B58F7D84BD08958091B0008F77E2
:1032400003C08091B0008F7D8093B000089580917D
:1032500090008F7707C0809190008F7D03C0809190
:103260009000877F8093900008958091A0008F77D1
:1032700007C08091A0008F7D03C08091A000877F50
:103280008093A0000895809120018F7707C08091DE
:1032900020018F7D03C080912001877F80932001D2
:1032A0000895CF93DF9390E0FC01EF54FE4F4491DB
:1032B000FC01E950FE4F8491882341F190E0880F92
:1032C000991FFC01EF58FD4F25913491D901895A7E
:1032D0009D4FFC0185919491C82FD92F9FB7F894E9
:1032E0008C91611106C0409584238C93888184233E
:1032F00008C0623041F4242F209582238C9388816A
:10330000842B888302C0842B8C939FBFDF91CF9145
:1033100008950F931F93CF93DF931F92CDB7DEB71E
:10332000282F30E0F901E559FE4F8491F901EF545F
:10333000FE4F1491F901E950FE4F04910023D1F0A2
:10334000882321F069830E94E5186981E02FF0E06D
:10335000EE0FFF1FE95AFD4F85919491DC019FB755
:10336000F8948C91611103C01095812301C0812BC9
:103370008C939FBF0F90DF91CF911F910F91089574
:10338000CF93DF93282F30E0F901E559FE4F849168
:10339000F901EF54FE4FD491F901E950FE4FC49169
:1033A000CC2389F081110E94E518EC2FF0E0EE0F9C
:1033B000FF1FE35CFD4F85919491DC018C918D237F
:1033C00021E030E011F420E030E0C901DF91CF913D
:1033D0000895FC0184859585FC01E05CFF4F208108
:1033E0003181FC01EE5BFF4F80819181281B390BFD
:1033F0002F733327C9010895FC0184859585FC014D
:10340000E05CFF4F40815181FC01EE5BFF4F20816A
:1034100031814217530741F00190F081E02DE80F10
:10342000F91F208130E002C02FEF3FEFC90108955E
:10343000FC0184859585FC01E05CFF4F4081518152
:10344000FC01EE5BFF4F208131814217530781F071
:10345000A081B181A80FB91F8C91208131812F5F8C
:103460003F4F2F73332731832083282F30E002C052
:103470002FEF3FEFC9010895FC0181A1882329F0B6
:10348000A489B5898C9186FFFBCF11A20895CF93B3
:10349000DF93FC0126853785D901A05CBF4F8D9154
:1034A0009C91119701968F739927E901CE5BDF4FAD
:1034B0004881598184179507D9F30D90BC91A02DAF
:1034C000A20FB31F6C93A685B785A05CBF4F119662
:1034D0009C938E93A689B7892C9181E090E0078C0C
:1034E00002C0880F991F0A94E2F7282B2C9381E0E1
:1034F00081A30488F589E02D80818064808381E048
:1035000090E0DF91CF910895FB01E05CFF4F2081B7
:1035100031812F5F3F4F2F733327DB01AE5BBF4FEE
:103520004D915C912417350739F0A081B181A60F28
:10353000B71F8C9331832083089508951F920F92B3
:103540000FB60F9211240BB60F922F933F934F9308
:103550005F936F937F938F939F93AF93BF93EF93FB
:10356000FF938091C00082FD07C08091C60063EE8A
:1035700078E00E94841A02C08091C600FF91EF910A
:10358000BF91AF919F918F917F916F915F914F917B
:103590003F912F910F900BBE0F900FBE0F901F9079
:1035A000189508951F920F920FB60F9211240BB623
:1035B0000F922F933F934F935F936F937F938F93CC
:1035C0009F93AF93BF93EF93FF938091C80082FDC9
:1035D00007C08091CE006BE578E00E94841A02C09B
:1035E0008091CE00FF91EF91BF91AF919F918F910C
:1035F0007F916F915F914F913F912F910F900BBEF3
:103600000F900FBE0F901F90189508951F920F9264
:103610000FB60F9211240BB60F922F933F934F9337
:103620005F936F937F938F939F93AF93BF93EF932A
:10363000FF938091D00082FD07C08091D60063ED9A
:1036400077E00E94841A02C08091D600FF91EF912A
:10365000BF91AF919F918F917F916F915F914F91AA
:103660003F912F910F900BBE0F900FBE0F901F90A8
:10367000189508951F920F920FB60F9211240BB652
:103680000F922F933F934F935F936F937F938F93FB
:103690009F93AF93BF93EF93FF938091300182FD8F
:1036A00007C0809136016BE477E00E94841A02C063
:1036B00080913601FF91EF91BF91AF919F918F91D2
:1036C0007F916F915F914F913F912F910F900BBE22
:1036D0000F900FBE0F901F90189585EE96E00E94F8
:1036E000E919892B11F00E949D1A83EC96E00E9443
:1036F000E919892B11F00E94D11A81EA96E00E9403
:10370000E919892B11F00E94051B8FE796E00E94B2
:10371000E919892B11F00C94391B08951F920F920F
:103720000FB60F9211240BB60F922F933F938F93E6
:103730009F93EF93FF932091DF083091E0088091F1
:10374000E1089091E2082817390731F48091C1000F
:103750008F7D8093C10014C0E091E108F091E208F0
:10376000E156F74F20818091E1089091E20801969F
:103770008F7399279093E2088093E1082093C60005
:10378000FF91EF919F918F913F912F910F900BBEE1
:103790000F900FBE0F901F9018951F920F920FB6AB
:1037A0000F9211240BB60F922F933F938F939F93F9
:1037B000EF93FF9320915708309158088091590852
:1037C00090915A082817390731F48091C9008F7DEC
:1037D0008093C90014C0E0915908F0915A08E95E3D
:1037E000F74F20818091590890915A0801968F7364
:1037F000992790935A08809359082093CE00FF91FF
:10380000EF919F918F913F912F910F900BBE0F9051
:103810000FBE0F901F9018951F920F920FB60F9228
:1038200011240BB60F922F933F938F939F93EF9397
:10383000FF932091CF073091D0078091D1079091CD
:10384000D2072817390731F48091D1008F7D8093FA
:10385000D10014C0E091D107F091D207E157F84FA1
:1038600020818091D1079091D20701968F7399277B
:103870009093D2078093D1072093D600FF91EF91C8
:103880009F918F913F912F910F900BBE0F900FBE84
:103890000F901F9018951F920F920FB60F92112440
:1038A0000BB60F922F933F938F939F93EF93FF93BA
:1038B00020914707309148078091490790914A0726
:1038C0002817390731F4809131018F7D80933101C0
:1038D00014C0E0914907F0914A07E95FF84F208151
:1038E0008091490790914A0701968F739927909389
:1038F0004A078093490720933601FF91EF919F91EA
:103900008F913F912F910F900BBE0F900FBE0F9094
:103910001F901895CF92DF92EF92FF92CF93DF9393
:10392000EC016A017B01411581EE580761057105C3
:10393000F9F0EC89FD8981E090E008A002C0880FD1
:10394000991F0A94E2F7808360E079E08DE390E0CC
:10395000A70196010E94C94021503109410951092E
:103960005695479537952795211580E1380798F0AA
:10397000EC89FD89108260E874E88EE190E0A7018F
:1039800096010E94C94021503109410951095695BB
:10399000479537952795E889F9893083EA89FB8926
:1039A000208319A2EE89FF89408181E090E09C018B
:1039B0000C8C02C0220F331F0A94E2F7422B408383
:1039C000EE89FF8940819C010D8C02C0220F331FBC
:1039D0000A94E2F7422B4083EE89FF8940819C01E3
:1039E0000E8C02C0220F331F0A94E2F7422B408351
:1039F000EE89FF8920810F8C02C0880F991F0A94DD
:103A0000E2F7809582238083DF91CF91FF90EF9042
:103A1000DF90CF900895CF931092E8061092E706BA
:103A200088EE93E0A0E0B0E08093E9069093EA0688
:103A3000A093EB06B093EC0624E933E03093E6065E
:103A40002093E50643EE58E05093F2064093F106CA
:103A50004FE958E05093F4064093F30645EC50E0EC
:103A60005093F6064093F50644EC50E05093F80668
:103A70004093F70640EC50E05093FA064093F90665
:103A800041EC50E05093FC064093FB0642EC50E0C2
:103A90005093FE064093FD0646EC50E0509300071D
:103AA0004093FF06C4E0C0930107F3E0F0930207E0
:103AB000E7E0E093030775E07093040761E060932B
:103AC00005071092C6061092C5068093C70690930C
:103AD000C806A093C906B093CA063093C4062093C3
:103AE000C3064BE558E05093D0064093CF0647E11C
:103AF00058E05093D2064093D1064DEC50E05093DD
:103B0000D4064093D3064CEC50E05093D606409335
:103B1000D50648EC50E05093D8064093D70649ECC0
:103B200050E05093DA064093D9064AEC50E05093A7
:103B3000DC064093DB064EEC50E05093DE064093EB
:103B4000DD06C093DF06F093E006E093E106709394
:103B5000E2066093E3061092A4061092A3068093F7
:103B6000A5069093A606A093A706B093A806309347
:103B7000A2062093A10643ED57E05093AE06409372
:103B8000AD064FE857E05093B0064093AF0645EDC1
:103B900050E05093B2064093B10644ED50E050938C
:103BA000B4064093B30640ED50E05093B606409300
:103BB000B50641ED50E05093B8064093B70642ED8C
:103BC00050E05093BA064093B90646ED50E050934A
:103BD000BC064093BB06C093BD06F093BE06E093BF
:103BE000BF067093C0066093C106109282061092C1
:103BF00081068093830690938406A0938506B093F4
:103C000086063093800620937F068BE497E090939E
:103C10008C0680938B0687E097E090938E068093C6
:103C20008D0685E391E09093900680938F0684E360
:103C300091E0909392068093910680E391E09093B7
:103C400094068093930681E391E090939606809387
:103C5000950682E391E0909398068093970686E319
:103C600091E090939A0680939906C0939B06F093F7
:103C70009C06E0939D0670939E0660939F06CF91ED
:103C800008950E9483180E941009CDE6DBE10E948E
:103C90009B092097E1F30E946D1BF9CF0C9416410C
:103CA000CF92DF92EF92FF920F931F93CF93DF9308
:103CB0006C01EB017A01E60EF71E00E010E00BC08C
:103CC0006991D601ED91FC910190F081E02DC60142
:103CD0001995080F191FCE15DF0591F7C801DF915F
:103CE000CF911F910F91FF90EF90DF90CF900895AB
:103CF0006115710581F0DB010D900020E9F7AD0140
:103D000041505109461B570BDC01ED91FC9102809B
:103D1000F381E02D199480E090E008950C94781ED2
:103D2000DC01ED91FC910190F081E02D19940F934D
:103D30001F93CF93DF93EC016DE00E94901E8C01E6
:103D40006AE0CE010E94901E9C01200F311FC90124
:103D5000DF91CF911F910F9108950F931F93CF93F0
:103D6000DF93EC010E94781E8C01CE010E94971E09
:103D70009801280F391FC901DF91CF911F910F9131
:103D800008954F925F926F927F929F92AF92BF92EF
:103D9000CF92DF92EF92FF920F931F93CF93DF9317
:103DA000CDB7DEB7A1970FB6F894DEBF0FBECDBF7B
:103DB0005C016A017B01922E19A281E0821710F04A
:103DC0008AE0982E8E010F5D1F4F492C512C612CDB
:103DD000712CC701B601A30192010E94C9408C2D2C
:103DE000929E80191124015011098A3010F4805DCF
:103DF00001C0895CF801808369017A01C114D10492
:103E0000E104F10431F7B801C5010E94781EA196C2
:103E10000FB6F894DEBF0FBECDBFDF91CF911F91DB
:103E20000F91FF90EF90DF90CF90BF90AF909F9059
:103E30007F906F905F904F9008952115310541F468
:103E4000DC01ED91FC910190F081E02D642F19943B
:103E50000C94C11E0F931F93CF93DF93EC019A0133
:103E6000AB0160E070E00E941D1F8C01CE010E943A
:103E7000971E9801280F391FC901DF91CF911F911B
:103E80000F9108959A01462F50E060E070E00C9485
:103E90001D1F0F931F93CF93DF93EC019A01462FC1
:103EA00050E060E070E00E941D1F8C01CE010E9476
:103EB000971E9801280F391FC901DF91CF911F91DB
:103EC0000F910895CF92DF92EF92FF920F931F937D
:103ED000CF93DF93EC016A017B012115310579F461
:103EE000E881F9810190F081E02D642FDF91CF917D
:103EF0001F910F91FF90EF90DF90CF9019942A308F
:103F0000310519F477FD0EC02AE0B701A601CE01F4
:103F1000DF91CF911F910F91FF90EF90DF90CF90A5
:103F20000C94C11E6DE20E94901E8C0144275527FF
:103F3000BA014C195D096E097F092AE0CE010E9481
:103F4000C11E080F191FC801DF91CF911F910F915A
:103F5000FF90EF90DF90CF9008959A01AB01662714
:103F600057FD6095762F0C94621F0F931F93CF938C
:103F7000DF93EC019A01AB01662757FD6095762F20
:103F80000E94621F8C01CE010E94971E9801280F8B
:103F9000391FC901DF91CF911F910F9108957F9231
:103FA0008F929F92AF92BF92CF92DF92EF92FF9249
:103FB0000F931F93CF93DF93EC016A017B01122FC4
:103FC0009A01AB01C701B6010E945D40882319F038
:103FD00060EA73E032C046015701E894B7F82FEF6A
:103FE0003FEF4FE75FE7C501B4010E945D408111DB
:103FF0000DC02FEF3FEF4FE75FE7C501B4010E940F
:10400000C83D18161CF464EA73E017C02FEF3FEFA9
:104010004FE75FE4C701B6010E94A43F18160CF4F5
:104020000AC02FEF3FEF4FE75FECC701B6010E94D8
:10403000C83D87FF12C068EA73E0CE01DF91CF91DF
:104040001F910F91FF90EF90DF90CF90BF90AF90B6
:104050009F908F907F900C94781E20E030E0A90113
:10406000C701B6010E94C83D87FF0AC06DE2CE01BC
:104070000E94901E5C01F7FAF094F7F8F09402C0E9
:10408000A12CB12C00E060E070E080E09FE307C06D
:1040900020E030E040E251E40E94CF3D0F5F011389
:1040A000F7CF262F372F482F592FC701B6010E946F
:1040B000EB3C762E872E982EC92E0E943C3ED62EA3
:1040C000E72EF82E092F0E94683E9B01AC01672D58
:1040D000782D892D9C2D0E94EA3CC62E972E882E85
:1040E000792E2AE04D2D5E2D6F2D702FCE010E946E
:1040F000C11E7C01EA0CFB1C1123B9F161E974E0DB
:10410000CE010E94781EE80EF91E2FC020E030E09C
:1041100040E251E46C2D792D882D972D0E94AF3F00
:10412000762E072F6C019D2D0E94373E4B01AA244D
:1041300097FCA094BA2C2AE030E0B501A401CE018E
:104140000E94621FE80EF91EC501B4010E946A3E7A
:104150009B01AC01672D702F8C2D9D2D0E94EA3C98
:10416000C62E972E882E792E11501111CFCFC70150
:10417000DF91CF911F910F91FF90EF90DF90CF9043
:10418000BF90AF909F908F907F9008950C94CF1F19
:104190004F925F926F927F92AF92BF92CF92DF92D7
:1041A000EF92FF920F931F93CF93DF93CDB7DEB7BC
:1041B00029013A01621B730B840B950B2A893B89F9
:1041C0004C895D892A193B094C095D092A8B3B8B77
:1041D0004C8B5D8B9B01AC016A897B898C899D89A5
:1041E0000E949140E418F50806091709A8019701F3
:1041F0000E94EB402A0D3B1D4C1D5D1DB901CA01FB
:10420000DF91CF911F910F91FF90EF90DF90CF90B2
:10421000BF90AF907F906F905F904F9008952091E6
:10422000570930E080915809281B3109C9010895C8
:104230008091580990915709891750F4E82FF0E0C0
:10424000E75AF64F208130E08F5F8093580902C013
:104250002FEF3FEFC9010895E09158098091570968
:10426000E81730F4F0E0E75AF64F208130E002C062
:104270002FEF3FEFC90108950895CF92DF92EF929B
:10428000FF920F931F93CF93DF937C01CB018A01A1
:1042900020913309222391F0EB016B01C40ED51E4E
:1042A00009C06991D701ED91FC910190F081E02D59
:1042B000C7011995CC15DD05A1F703C0642F0E9435
:1042C000953AC801DF91CF911F910F91FF90EF9028
:1042D000DF90CF900895CF93DF931F92CDB7DEB7D5
:1042E0006983209133092223D1F0209134092032AF
:1042F00040F021E030E0FC013383228320E030E015
:1043000015C080913509E82FF0E0EA5CF64F9981FD
:1043100090838F5F809335098093340905C061E0F5
:10432000CE0101960E94953A21E030E0C9010F903C
:10433000DF91CF910895FC011382128248EE53E081
:1043400060E070E0448355836683778380EB93E07D
:104350009183808308951092580910925709109202
:104360003509109234090C94DF39862F413208F058
:1043700040E269E579E00E94FD3910925809809386
:104380005709089521E00C94B52181E08093330909
:1043900060935609109235091092340908950F93CD
:1043A000062F21E04091340966E379E080915609B7
:1043B0000E94423A10923509109234091092330942
:1043C0000F91089561E00C94CF2187E299E00C945D
:1043D0009B214F925F926F927F928F929F92AF92AA
:1043E000BF92CF92DF92EF92FF920F931F93CF93E2
:1043F000DF93CDB7DEB728970FB6F894DEBF0FBEB8
:10440000CDBF8C01DC018D919D910D90BC91A02DB3
:1044100089839A83AB83BC83F8014480558066808E
:10442000778080849184A284B38484859585A685D1
:10443000B7858D839E83AF83B88729813A814B816D
:104440005C81CA01B9010E94AF3F6B017C01A301ED
:104450009201C301B2010E94AF3F9B01AC01C701B1
:10446000B6010E94EB3C6B017C01A5019401C501E2
:10447000B4010E94AF3F9B01AC01C701B6010E948D
:10448000EB3C6B017C012D813E814F815885CA0137
:10449000B9010E94AF3F9B01AC01C701B6010E9468
:1044A000EB3C0E941C406B017C0120E030E0A90144
:1044B0000E94C83D8823A1F1A701960169817A81F4
:1044C0008B819C810E94CF3DF80160837183828340
:1044D0009383A7019601C301B2010E94CF3DD80189
:1044E00014966D937D938D939C931797A7019601D6
:1044F000C501B4010E94CF3DF801608771878287B2
:104500009387A70196016D817E818F8198850E9496
:10451000CF3DD8011C966D937D938D939C931F97EF
:1045200028960FB6F894DEBF0FBECDBFDF91CF91B6
:104530001F910F91FF90EF90DF90CF90BF90AF90C1
:104540009F908F907F906F905F904F9008954F92C3
:104550005F926F927F928F929F92AF92BF92CF9213
:10456000DF92EF92FF920F931F93CF93DF93EC01B3
:104570008B01288539854A855B85688179818A81A7
:104580009B810E94AF3F6B017C012C853D854E8550
:104590005F856C817D818E819F810E94AF3F9B01F1
:1045A000AC01C701B6010E94EA3C9B01AC010E942C
:1045B000EB3C0E944F3D6B017C01F80164837583E5
:1045C0008683978325E739EA42EC5FE30E94C83D82
:1045D00087FF5AC025E739EA42EC5FEBC701B60115
:1045E0000E94A43F18160CF04FC0CC80DD80EE80F6
:1045F000FF8088849984AA84BB84A7019601C7019F
:10460000B6010E94AF3F2B013C01A5019401C501F9
:10461000B4010E94AF3F9B01AC01C301B2010E94F3
:10462000EB3C9B01AC010E94EB3C9B01AC0160E0C8
:1046300070E080E89FE30E94EA3C2B013C012C855E
:104640003D854E855F85C501B4010E94AF3F4B019A
:104650005C01288139814A815B81C701B6010E94D2
:10466000AF3F9B01AC01C501B4010E94EB3C9B0133
:10467000AC010E94EB3CA30192010E94753DF80140
:10468000608371838283938388849984AA84BB84A2
:10469000CC84DD84EE84FF84A5019401C501B401BE
:1046A0000E94AF3F2B013C01A7019601C701B60153
:1046B0000E94AF3F9B01AC01C301B2010E94EB3CE1
:1046C0009B01AC010E94EB3C9B01AC0160E070E0FF
:1046D00080E89FE30E94EA3C2B013C012C813D8154
:1046E0004E815F81C501B4010E94AF3F4B015C0167
:1046F000288139814A815B81C701B6010E94AF3FA1
:104700009B01AC01C501B4010E94EB3C9B01AC01D3
:104710000E94EB3CA30192010E94753DF801608765
:10472000718782879387DF91CF911F910F91FF90BF
:10473000EF90DF90CF90BF90AF909F908F907F9041
:104740006F905F904F9008952F923F924F925F929B
:104750006F927F928F929F92AF92BF92CF92DF9291
:10476000EF92FF920F931F93CF93DF93CDB7DEB7F6
:1047700067970FB6F894DEBF0FBECDBF9C838B83C7
:104780007A83698320E030E040E05FE3FC016081F0
:104790007181828193810E94AF3F5B018C017B2DEF
:1047A000802F912F0E94CC3D6B017C016A2D7B2DC7
:1047B000802F912F0E9412404B015C0120E030E0DD
:1047C00040E05FE3EB81FC816481758186819781A4
:1047D0000E94AF3F1B018C01732D802F912F0E94EF
:1047E000CC3D2B013C01622D732D802F912F0E9417
:1047F00012406B877C878D879E8720E030E040E009
:104800005FE3EB81FC8160857185828593850E94E1
:10481000AF3F8B011C01712F932D0E94CC3D6B8308
:104820007C838D839E83602F712F822D932D0E9418
:1048300012406F83788789879A87A3019201C70105
:10484000B6010E94AF3F362E272E8F87988B2B857F
:104850003C854D855E85C501B4010E94AF3F062FA2
:104860007F8B182F9D8B2B813C814D815E81D101E7
:10487000EF85F8896B2F7A2FCF010E94AF3F698BAC
:104880007A8B8B8B9C8B2F81388549855A85AF8994
:10489000ED89602F7A2F812F9E2F0E94AF3F9B01C1
:1048A000AC0169897A898B899C890E94EB3CE981FA
:1048B000FA816083718382839383A3019201C5018E
:1048C000B4010E94AF3F5B01582E492E2B853C85D9
:1048D0004D855E85C701B6010E94AF3F3B014C018B
:1048E0002B813C814D815E81F2016A2D7B2D8F2FC2
:1048F0009E2F0E94AF3F6B017C012F813885498537
:104900005A85662D772D882D992D0E94AF3F9B01EA
:10491000AC01C701B6010E94EA3CE981FA816483D7
:104920007583868397832B813C814D815E81662DC3
:10493000772D882D992D0E94AF3F6B017C012F812F
:10494000388549855A85F2016A2D7B2D8F2F9E2F40
:104950000E94AF3F9B01AC01C701B6010E94EB3C36
:10496000E981FA8160877187828793872F813885F3
:1049700049855A85D101FF84E8886B2F7A2F8F2DC6
:104980009E2D0E94AF3F6B017C012B813C814D81AC
:104990005E81AF89ED89602F7A2F812F9E2F0E9433
:1049A000AF3F9B01AC01C701B6010E94EA3CE9811F
:1049B000FA816487758786879787CF0167960FB6D8
:1049C000F894DEBF0FBECDBFDF91CF911F910F9145
:1049D000FF90EF90DF90CF90BF90AF909F908F901F
:1049E0007F906F905F904F903F902F900C94E921B3
:1049F000DC01FB014D915D916D917C91139740839A
:104A000051836283738314964D915D916D917C9176
:104A100017977058448355836683778318964D9112
:104A20005D916D917C911B9770584087518762878B
:104A300073871C968D919D910D90BC91A02DB058BF
:104A400084879587A687B78708958F929F92AF92A4
:104A5000BF92CF92DF92EF92FF920F931F93CF936B
:104A6000DF93CDB7DEB7A8970FB6F894DEBF0FBEC1
:104A7000CDBF4C018B015A01FC0184819581A68137
:104A8000B781898F9A8FAB8FBC8F80859185A285E6
:104A9000B3858D8F9E8FAF8FB8A384859585A685AE
:104AA000B78589A39AA3ABA3BCA3FB01848195819D
:104AB000A681B7818D879E87AF87B88B80859185CA
:104AC000A285B385898B9A8BAB8BBC8B84859585AE
:104AD000A685B7858D8B9E8BAF8BB88FAE014B5D56
:104AE0005F4FBE01635F7F4FCE0149960E9427262C
:104AF000AE014F5F5F4FBE01635F7F4FCE014996AE
:104B00000E947526F8012081318142815381F40190
:104B100060817181828193810E94AF3F2DA13EA16E
:104B20004FA158A50E94EA3CF501608371838283FE
:104B300093832D853E854F855889F401608171816D
:104B4000828193810E94AF3F6B017C01298D3A8D58
:104B50004B8D5C8DF80160817181828193810E940F
:104B6000AF3F9B01AC01C701B6010E94EB3C29811C
:104B70003A814B815C810E94EB3CF5016483758333
:104B80008683978329893A894B895C89F4016081FE
:104B90007181828193810E94AF3F6B017C012D8DD9
:104BA0003E8D4F8D58A1F801608171818281938182
:104BB0000E94AF3F9B01AC01C701B6010E94EB3CD4
:104BC0002D813E814F8158850E94EB3CF501608725
:104BD0007187828793872D893E894F89588DF4018B
:104BE00060817181828193810E94AF3F6B017C0162
:104BF00029A13AA14BA15CA1F80160817181828158
:104C000093810E94AF3F9B01AC01C701B6010E9496
:104C1000EB3C29853A854B855C850E94EB3CF50190
:104C20006487758786879787A8960FB6F894DEBF46
:104C30000FBECDBFDF91CF911F910F91FF90EF90ED
:104C4000DF90CF90BF90AF909F908F900895AF92DC
:104C5000BF92CF92DF92EF92FF920F931F93CF9369
:104C6000DF93EC018B015A01FB01208131814281EC
:104C70005381688179818A819B810E94AF3F6B015A
:104C80007C01F80124813581468157816C817D81C9
:104C90008E819F810E94AF3F9B01AC01C701B6018D
:104CA0000E94EB3C6B017C01F80120853185428537
:104CB0005385688579858A859B850E94AF3F9B01D6
:104CC000AC01C701B6010E94EB3CF5016083718322
:104CD00082839383DF91CF911F910F91FF90EF908B
:104CE000DF90CF90BF90AF900895AF92BF92CF92D8
:104CF000DF92EF92FF920F931F93CF93DF93EC011C
:104D00008B015A01FB0120853185428553856C81D9
:104D10007D818E819F810E94AF3F6B017C01F801F4
:104D20002481358146815781688579858A859B856F
:104D30000E94AF3F9B01AC01C701B6010E94EA3C53
:104D4000F5016083718382839383F801208131812F
:104D500042815381688579858A859B850E94AF3F12
:104D60006B017C01F801208531854285538568817E
:104D700079818A819B810E94AF3F9B01AC01C70171
:104D8000B6010E94EA3CF5016483758386839783AC
:104D9000F8012481358146815781688179818A8132
:104DA0009B810E94AF3F6B017C01F8012081318122
:104DB000428153816C817D818E819F810E94AF3FB2
:104DC0009B01AC01C701B6010E94EA3CF501608776
:104DD000718782879387DF91CF911F910F91FF9009
:104DE000EF90DF90CF90BF90AF900895EF92FF9239
:104DF0000F931F93CF93DF93EB0190E2899F800184
:104E000011241B821A82198A188AB8018FEA9AE043
:104E10000E94DC398C3FE1F4B8016F5F7F4F8FEA6D
:104E20009AE00E94DC39853199F47E0180E2E80E37
:104E3000F11C0C1B1D0BBE01600F711F8FEA9AE065
:104E40000E94DC398993CE15DF05A9F781E001C006
:104E500080E0DF91CF911F910F91FF90EF90089527
:104E6000CF93DF931F92CDB7DEB7E0917909F09130
:104E70007A09958D9923C1F0882311F082E01DC035
:104E80001982A081B1810280F381E02D9E012F5F04
:104E90003F4F41E051966C9180810E94B43C81115A
:104EA0000EC02FEF3FEF13C096819923D1F38823D3
:104EB00039F38485811109C081E08983E2CFE091D3
:104EC0007909F0917A098981848720E030E0C9016D
:104ED0000F90DF91CF9108959C0182309105B8F534
:104EE0008093930A9093940A4AE2429FC001439FA1
:104EF000900D1124815C954F9093800980937F09D8
:104F00004CE0429FC001439F900D1124895D954F55
:104F100090937E0980937D0947E2429FC001439FA1
:104F2000900D11248752964F90937C0980937B09B2
:104F30004CE2429FC001439F900D11248F57964F22
:104F400090937A098093790920E030E002C02FEF36
:104F50003FEFC9010895CF93DF93E0917F09F0916E
:104F6000800985E7808389E181838AE182838CE0FF
:104F700083838AE6848383E285838BE186838CE165
:104F800087838FE1828780E2838782E7848784E753
:104F9000858783E486878BE3878781E4808B88E33A
:104FA000818B89E3828B8AE3838B8BE6858B8CE60E
:104FB000868B87E3878B8FE6808F86E0818F84E204
:104FC000828F8DE6838F8EE6848F80E7858F89E4DC
:104FD00080A781E081A785E2868F86E2878F87E2BE
:104FE00080A388E281A389E282A38AE283A384E387
:104FF00084A383E685A384E686A387E687A38091BE
:10500000930A9091940AA0917D09B0917E0900972E
:1050100019F0019729F402C088E601C089E68C9353
:1050200020917D0930917E0980E094E0D9011296AB
:105030009C938E93119786E713968C93139784E530
:1050400091E015969C938E93149787EF9DEF17969A
:105050009C938E93169780E091E019969C938E9383
:10506000189786E696E21B969C938E931A97C091AA
:105070007B09D0917C0983E890E0A0E0B0E08883D0
:105080009983AA83BB8380E098E0A0E0B0E08C83A2
:105090009D83AE83BF83188681E089871A8688E165
:1050A0008B8782E390E09D878C8785E08E8780E008
:1050B00090E0A0E2B1E48F87988BA98BBA8B80E057
:1050C00090E0A2EDB2E48B8B9C8BAD8BBE8B89E222
:1050D0009CE5AFE0BEE38F8B988FA98FBA8F4AE92A
:1050E00059E969E97EE34B8F5C8F6D8F7E8F43E3D7
:1050F00053E363E77FE34F8F58A369A37AA38BA39E
:105100009CA3ADA3BEA3A0917909B0917A09119691
:10511000FC93EE9313963C932E9312979B96DC93FD
:10512000CE939A97DF91CF910895AF92BF92CF928D
:10513000DF92EF92FF920F931F93CF93DF9300D0F4
:1051400000D0CDB7DEB75C01009719F42FEF3FEF29
:10515000C8C0FC0180819181A281B381892B8A2BF7
:105160008B2B89F484819581A681B781892B8A2B29
:105170008B2B49F480859185A285B385892B8A2B59
:105180008B2B09F4ACC00091100210911102E09138
:105190007909F0917A090280F381E02D9E012F5F59
:1051A0003F4F43E063E080810E94F23B882371F22D
:1051B000F5016081718182819381660F771F881F5D
:1051C000991F298130E044E0359527954A95E1F70C
:1051D000285F3F4F2F703327205C3F4F442737FD18
:1051E0004095542F0E94EB406901F501648175815F
:1051F00086819781660F771F881F991F2A8130E06B
:10520000E4E035952795EA95E1F7285F3F4F2F7049
:105210003327205C3F4F442737FD4095542F0E9491
:10522000EB407901F5016085718582859385660F74
:10523000771F881F991F2B8130E0A4E035952795B3
:10524000AA95E1F7285F3F4F2F703327205C3F4F2F
:10525000442737FD4095542F0E94EB40590100919F
:10526000100210911102E0917909F0917A090280FF
:10527000F381E02D9E012F5F3F4F46E066E0808185
:105280000E94F23B882309F461CF398120E08A81B2
:10529000282B2C0D3D1D5B8140E08C81482B4E0D51
:1052A0005F1D9D8180E06E81862B8A0D9B1D398359
:1052B0002A835B834C839D838E83E0917909F091EF
:1052C0007A090280F381E02D9E012F5F3F4F46E077
:1052D00066E080810E94B43C882309F437CF20E047
:1052E00030E0C90126960FB6F894DEBF0FBECDBFE1
:1052F000DF91CF911F910F91FF90EF90DF90CF90B2
:10530000BF90AF900895CF93DF931F92CDB7DEB7D4
:10531000E0917909F0917A098681811103C02FEF1C
:105320003FEF08C11982A081B1810280F381E02D95
:105330009E012F5F3F4F41E051966C9180810E940A
:10534000B43C882361F3E0917909F0917A09A08156
:10535000B1810280F381E02D9E012F5F3F4F41E03C
:1053600015966C9180810E94B43C8823C1F2E09133
:105370007909F0917A09A081B1810280F381E02D51
:105380009E012F5F3F4F41E014966C9180810E94F7
:10539000B43C882321F2E0917909F0917A09858D56
:1053A000A281B381882309F45FC08CE089830190D6
:1053B000F081E02D9E012F5F3F4F41E064818C9191
:1053C0000E94B43C882309F4AACF62E370E080E035
:1053D00090E00E945D1880EC8983E0917909F0915A
:1053E0007A09868180FF02C080EE8983A081B18125
:1053F0000280F381E02D9E012F5F3F4F41E0149624
:105400006C9180810E94B43C882309F488CFE0919C
:105410007909F0917A098485882319F082E08983DB
:1054200001C01982A081B1810280F381E02D9E012B
:105430002F5F3F4F41E051966C9180810E94B43CB8
:10544000882309F46CCF1982E0917909F0917A09E7
:10545000A081B1810280F381E02D9E012F5F3F4F3B
:1054600060C020E030E066C084E089830190F08174
:10547000E02D9E012F5F3F4F41E064818C910E949F
:10548000B43C882309F44BCFE0917909F0917A0973
:105490008585811103C0868180FD02C080E401C042
:1054A00080E68983A081B1810280F381E02D9E0195
:1054B0002F5F3F4F41E014966C9180810E94B43C75
:1054C000882309F42CCF62E370E080E090E00E9432
:1054D0005D18E0917909F0917A098485882319F0A3
:1054E00081E0898301C01982A081B1810280F381AA
:1054F000E02D9E012F5F3F4F41E051966C918081DE
:105500000E94B43C882309F40ACFE0917909F09114
:105510007A099F01255F3F4FA081B1810280F3810D
:10552000E02D41E015966C9180810E94B43C811180
:1055300098CFF5CEC9010F90DF91CF910895CF9309
:10554000DF931F92CDB7DEB7E0917909F0917A0928
:105550002681211101C042C0843F21E0920779F0E9
:1055600020F48A3F9105D1F508C0883E23E09207D8
:1055700041F0803D974091F506C0198206C088E051
:1055800003C080E101C088E18983248130E0898102
:1055900090E043E0959587954A95E1F728173907FC
:1055A00001F1A081B1810280F381E02D9E012F5F86
:1055B0003F4F41E016966C9180810E94B43C882355
:1055C00069F0E0917909F0917A09898190E0B3E07E
:1055D00095958795BA95E1F7848303C02FEF3FEF48
:1055E00002C020E030E0C9010F90DF91CF91089513
:1055F000CF93DF931F92CDB7DEB7E0917909F09199
:105600007A099681911101C03CC0843059F018F498
:105610008230B9F505C0883039F0803191F506C087
:10562000198206C088E003C080E101C088E1898357
:10563000258130E0898190E063E0959587956A95B2
:10564000E1F72817390701F1A081B1810280F381C8
:10565000E02D9E012F5F3F4F41E017966C918081B6
:105660000E94B43C882369F0E0917909F0917A09AD
:10567000898190E053E0959587955A95E1F7858368
:1056800003C02FEF3FEF02C020E030E0C9010F90D0
:10569000DF91CF910895CF93DF931F92CDB7DEB7FF
:1056A000E0917909F0917A092681211103C02FEF49
:1056B0003FEF36C08C3B910510F081E014C082367C
:1056C000910510F082E00FC08A32910510F083E05E
:1056D0000AC08431910510F084E005C00A9710F0EB
:1056E00085E001C086E08983978189819817B1F0B0
:1056F000A081B1810280F381E02D9E012F5F3F4F99
:1057000041E012966C9180810E94B43C882379F22A
:10571000E0917909F0917A098981878320E030E06E
:10572000C9010F90DF91CF910895CF93DF931F921E
:10573000CDB7DEB7BC01009719F42FEF3FEF30C0B3
:10574000E0917909F0917A0981859285861797070A
:10575000A0F36536710588F70E94A1406150698306
:10576000A081B1810280F381E02D9E012F5F3F4F28
:1057700041E094966C9180810E94B43C8823E9F2C8
:10578000E0917909F0917A09698170E06F5F7F4F4C
:10579000818592850E94A14072A361A320E030E040
:1057A000C9010F90DF91CF9108950F931F93CF936D
:1057B000DF93E0917909F0917A09958D911129C0D3
:1057C0009681992349F1182F1E7F0385812F892304
:1057D0008387811719F0CFEFDFEF02C0C0E0D0E080
:1057E000111103C08785882331F081E00E943027A2
:1057F0001123A1F004C080E00E9430270FC00E9456
:105800008329892B59F0E0917909F0917A0903876E
:1058100003C0C0E0D0E002C0CFEFDFEFCE01DF91E8
:10582000CF911F910F910895EF92FF920F931F93C5
:10583000CF93DF931F921F92CDB7DEB77C01E0912B
:105840007909F0917A098681811103C02FEF3FEF2A
:105850001DC00091100210911102A081B18102803F
:10586000F381E02D9E012F5F3F4F42E052966C91F5
:1058700080810E94F23B882349F3398120E08A81AC
:10588000282BF7013183208320E030E0C9010F90FD
:105890000F90DF91CF911F910F91FF90EF9008959E
:1058A0008F929F92AF92BF92CF92DF92EF92FF9230
:1058B0000F931F93CF93DF931F921F92CDB7DEB745
:1058C0007C014B015A01E0917909F0917A09858DAB
:1058D000882309F46EC08681882309F46DC0009185
:1058E000100210911102A081B1810280F381E02D9C
:1058F0009E012F5F3F4F42E01C966C9180810E9479
:10590000F23B882309F45BC0D980C12C8A81C82A64
:10591000CE14DF0428F4F50110822CEF3FEF57C0BE
:10592000A0917909B0917A091296ED91FC911397A3
:1059300081819281969587958C159D05D0F4009173
:105940001002109111020D90BC91A02D9E012F5FAD
:105950003F4F41E053966C9180810E94F23B882337
:1059600089F1898184FF05C00E9483292AEF3FEFD6
:105970002EC0E0917909F0917A09009110021091FE
:105980001102A081B1810280F381E02D94014E2D9E
:105990001D966C9180810E94F23B8823B1F0C60174
:1059A000B7010E94A1406150F501608320E030E022
:1059B0000EC02FEF3FEF0BC02EEF3FEF08C02DEFD3
:1059C0003FEF05C02BEF3FEF02C029EF3FEFC901CA
:1059D0000F900F90DF91CF911F910F91FF90EF905B
:1059E000DF90CF90BF90AF909F908F900895FF92DF
:1059F0000F931F93CF93DF931F92CDB7DEB7F82E8F
:105A0000E0917909F0917A0985858F1509F490C0A4
:105A10000091100210911102A081B1810280F381E6
:105A2000E02D9E012F5F3F4F41E014966C918081E5
:105A3000FF20A9F10E94F23B811103C02FEF3FEF3D
:105A400079C089818F7D8983E0917909F0917A0904
:105A5000A081B1810280F381E02D9E012F5F3F4F35
:105A600041E014966C9180810E94B43C882331F30C
:105A700063E070E080E090E00E945D1882E089833E
:105A8000E0917909F0917A09838D8823D1F182E838
:105A900035C0E0917909F0917A09F58649C00E94F4
:105AA000F23B882359F2E0917909F0917A099681C5
:105AB000898190FF02C0806201C08F7D8983A081AF
:105AC000B1810280F381E02D9E012F5F3F4F41E0C5
:105AD00014966C9180810E94B43C882309F4AECF67
